:1070000055C0000066C0000064C0000062C00000FF
:1070100060C000005EC000005CC000005AC00000FC
:1070200058C0000056C0000054C0000052C000000C
:1070300050C000004EC000004CC000004AC000001C
:1070400048C0000046C0000044C0000042C000002C
:1070500040C000003EC000003CC000003AC000003C
:1070600038C0000036C0000034C0000032C000004C
:1070700030C000002EC000002CC000002AC000005C
:1070800028C0000026C0000024C0000022C000006C
:1070900020C000001EC000001CC000001AC000007C
:1070A00018C0000016C0000014C0000011241FBE4C
:1070B000CFEFDAE0DEBFCDBF11E0A0E0B1E0EEEF50
:1070C000F7E702C005900D92A230B107D9F763D25D
:1070D00094C396CF9C01DB01FA01892BF9F48081DE
:1070E0009181892BD9F412968C91129790E0982F68
:1070F00088279183808313964C911397842B9183D7
:1071000080838CE08C9384E911968C93119712966E
:107110001C92129788E313968C93139783E0F901DE
:1071200080935700E89507B600FCFDCF50E040E0A3
:1071300071E06C91F901E40FF51F11968C91119794
:1071400090E0982F8827860F911D0C0170935700AF
:10715000E89511244E5F5F4F12964038510549F76C
:1071600085E0F90180935700E89507B600FCFDCF54
:1071700081E180935700E89508951F93CF93DF93A3
:10718000D82F192FC0910001CC0F8C2FF3D0812F55
:1071900014D18D2F12D1FBD18C2F8160EBD0DF91D8
:1071A000CF911F911BC10F931F93CF93DF938C013E
:1071B000E4DFC82FD0E0DC2FCC27C8010196DDDF4B
:1071C0009E01282BC901DF91CF911F910F91089546
:1071D0003F924F925F926F927F928F929F92AF9267
:1071E000BF92CF92DF92EF92FF920F931F93CF93B4
:1071F000DF93CDB7DEB7D4500FB6F894DEBF0FBE25
:10720000CDBF80E290E0CFDF7C01FE01319640E00F
:1072100050E0BA016F01DB01CA0128E000E2802ED4
:1072200003E8902E08EBA02E0DEEB02E80FF03C0D9
:10723000812C912C5401B695A79597958795882513
:107240009925AA25BB25215049F7B09581939193A3
:10725000A193B1934F5F5F4F6F4F7F4F411531E067
:10726000530761057105B9F6412C512C320110E02C
:1072700000E047018FEF881A980A570131E0A31AFE
:10728000B1083324339408151905E8F50E151F05C8
:10729000D0F5C801829687DF9C01A016B10609F4DB
:1072A0002227E32FE42584E0E89FF0011124EC0D70
:1072B000FD1D452C562C672C772480819181A2815D
:1072C000B38184259525A625B725282734E0239F5B
:1072D000F0011124EC0DFD1D492E5A2E6B2E772442
:1072E00080819181A281B381482659266A267B2616
:1072F000C8018F779927892B19F485B1832585B922
:107300000E5F1F4FC0CF8CE190E04DDFB0E0A0E0FA
:107310007C01DD24CC248EE190E045DF2898B0E0AC
:10732000A0E0AC01BD014C295D296E297F2981E0D7
:10733000441555056605770509F080E0DC5F0FB65A
:10734000F894DEBF0FBECDBFDF91CF911F910F919B
:10735000FF90EF90DF90CF90BF90AF909F908F9075
:107360007F906F905F904F903F90089588E4809356
:10737000B80008951092BC0094EA9093BC009091DC
:10738000BC0097FFFCCF9091B900987F983099F49A
:107390008093BB0084E88093BC008091BC0087FF91
:1073A000FCCF9091B900987F983119F081E090342A
:1073B00009F480E0089581E008958093BB0084E89B
:1073C0008093BC008091BC0087FFFCCF9091B900F6
:1073D000987F81E0983209F480E0089584EC8093EE
:1073E000BC008091BC0087FFFCCF8091BB0008955A
:1073F00084E88093BC008091BC0087FFFCCF809123
:10740000BB000895DF92EF92FF920F931F93CF93EB
:10741000DF93D62E072F7A01ADDF182F882351F086
:1074200011E0812FDF91CF911F910F91FF90EF908D
:10743000DF900895CD2DD02FEC0EFD1ECE15DF056B
:1074400029F08991BADF8823C9F3EACF84E98093D0
:10745000BC00E7CFAF92BF92CF92DF92FF920F9323
:107460001F93CF93DF93EB018A01816083DFF82EB6
:10747000811122C05E01D12CC12C01501109C0160E
:10748000D10640F4ABDFF50181935F01FFEFCF1A26
:10749000DF0AF5CFC00FD11FABDF888384E980936B
:1074A000BC008F2DDF91CF911F910F91FF90DF9046
:1074B000CF90BF90AF900895FF24F394F2CFDF9266
:1074C000EF92FF920F931F93CF93DF93C62FD42E8B
:1074D000052F79014FDF182F882351F011E0812FFC
:1074E000DF91CF911F910F91FF90EF90DF90089562
:1074F0008C2F63DFCD2DD02FEC0EFD1ECE15DF05BA
:1075000029F089915ADF8823C9F3E8CF84E9809371
:10751000BC00E5CFAF92BF92CF92DF92FF920F9364
:107520001F93CF93DF93F82ED62EEA01890122DF35
:10753000882369F0FF24F3948F2DDF91CF911F9161
:107540000F91FF90DF90CF90BF90AF9008958D2D59
:1075500034DF8F2D81600EDFF82E8111EBCF5E01BD
:10756000D12CC12C01501109C016D10640F436DFD0
:10757000F50181935F01FFEFCF1ADF0AF5CFC00F4E
:10758000D11F36DF888384E98093BC00D5CF84E99E
:107590008093BC000895CDB7DEB7C258D1090FB6AD
:1075A000F894DEBF0FBECDBFA89514BE80916000D9
:1075B00088618093600010926000F894D7DE209A72
:1075C00057985F9ACF57DF4F19821882C158D04021
:1075D0004F9B03C081E58093000186EF93E0F7D0D5
:1075E00090E0B0E0A0E0F82EEE24DD24CC2487EF7C
:1075F00093E0EDD0E82A88EF93E0E9D0182F89EFE7
:1076000093E0E5D0C82AD12A07B600FCFDCF84E17B
:1076100090E0C9DD2C0186E190E0C5DD712C612C84
:10762000320155244424B0E0A0E0482A592A6A2AAD
:107630007B2A2FEFC216D206E206F20631F04C1476
:107640005D046E047F0409F4A1C0C2DD882309F43F
:107650009DC0559AE12C70E7F72E83E030E8E31ADD
:10766000F108F70180935700E89507B600FCFDCFBD
:10767000E114F10499F7A89580E290E094DD6C01A3
:1076800010E000E060E2362E97013695322F222777
:10769000379527955701FFEFAF1ABF0A0C151D0547
:1076A00070F54801E89487F899240115110579F0DF
:1076B0008114910461F4AE014F575F4FBE016F5FBB
:1076C0007F4FC90107DD8BB183258BB97501C801D7
:1076D000829669DDE1E0F0E0EC0FFD1FE80DF91D99
:1076E0009083F8013196EF77FF2721E030E02C0FEF
:1076F0003D1FE20FF31F80830E5F1F4FC5CFC501F3
:107700009695982F882797958795B6014CD040E895
:1077100050E0BA01681B790BCB014FEF803891051F
:1077200048F4E1E0F0E0EC0FFD1FE80FF91F4083A3
:107730000196F4CFAE014F575F4FBE016F5F7F4F91
:10774000C901C8DC5D98672D77278827992786EFC0
:1077500093E045D0B3018827992787EF93E03FD086
:107760009927872D762D652D88EF93E038D0642DED
:1077700089EF93E034D007B600FCFDCFCF57DF4F41
:10778000E881F981C158D0400995FFCF84E290E0AB
:107790000ADD982789279827CF57DF4F9983888359
:1077A000C158D040EBCFAA1BBB1B51E107C0AA1F99
:1077B000BB1FA617B70710F0A61BB70B881F991F92
:1077C0005A95A9F780959095BC01CD010895F99936
:1077D000FECF92BD81BDF89A992780B50895262FD6
:1077E000F999FECF1FBA92BD81BD20BD0FB6F894A6
:0E77F000FA9AF99A0FBE01960895F894FFCF09
:0277FE00500039
:040000030000700089
:00000001FF
